:020000040000FA
:100000000C945C000C94B2010C948B010C9479005C
:100010000C9479000C9479000C9479000C9479007C
:100020000C9479000C9479000C9479000C9479006C
:100030000C9479000C9479000C9479000C9479005C
:100040000C9441010C9479000C9479000C94790083
:100050000C9479000C9479000C9479000C9479003C
:100060000C9479000C947900000000002400270013
:100070002A0000000000250028002B0004040404CE
:100080000404040402020202020203030303030342
:10009000010204081020408001020408102001021F
:1000A00004081020000000080002010000030407FB
:1000B000000000000000000011241FBECFEFD8E0B8
:1000C000DEBFCDBF11E0A0E0B1E0E8E4F6E002C0A1
:1000D00005900D92A830B107D9F721E0A8E0B1E072
:1000E00001C01D92A131B207E1F70E94D9010C9421
:1000F00022030C9400008091060190910701019663
:100100009093070180930601089590E0FC01EC555F
:10011000FF4F2491FC01E057FF4F3491FC01E4585C
:10012000FF4FE491EE23C9F0222339F0233001F18F
:10013000A8F4213019F1223029F1F0E0EE0FFF1F71
:10014000EE58FF4FA591B4918FB7F894EC916111DF
:1001500026C030953E233C938FBF08952730A9F0E9
:100160002830C9F0243049F7809180008F7D03C08A
:10017000809180008F7780938000DFCF84B58F7768
:1001800084BDDBCF84B58F7DFBCF8091B0008F77AE
:100190008093B000D2CF8091B0008F7DF9CF3E2BFD
:1001A000DACFCF93DF9390E0FC01E057FF4F24912B
:1001B00084589F4FFC0184918823C9F090E0880FF8
:1001C000991FFC01E859FF4FA591B491FC01EE582D
:1001D000FF4FC591D49161110DC09FB7F8948C91D8
:1001E000209582238C938881282328839FBFDF91C9
:1001F000CF910895623051F49FB7F8943C91822FCB
:10020000809583238C93E8812E2BEFCF8FB7F894C2
:10021000EC912E2B2C938FBFEACF0895809106018D
:100220009091070101979093070180930601892B14
:1002300091F48091040190910501019761F48AE0A5
:1002400090E0909307018093060185E090E0909301
:100250000501809304018091060190910701892B8B
:1002600079F48AE090E090930701809306018091F1
:100270000401909105010197909305018093040179
:1002800008951F920F920FB60F9211242F933F9350
:100290008F939F93AF93BF9380910D0190910E0127
:1002A000A0910F01B091100130910C0123E0230FB8
:1002B0002D3758F50196A11DB11D20930C01809397
:1002C0000D0190930E01A0930F01B0931001809146
:1002D000080190910901A0910A01B0910B010196CA
:1002E000A11DB11D8093080190930901A0930A01FB
:1002F000B0930B01BF91AF919F918F913F912F913F
:100300000F900FBE0F901F90189526E8230F0296AE
:10031000A11DB11DD2CF1F920F920FB60F921124C3
:100320002F933F934F935F936F937F938F939F93FD
:10033000AF93BF93EF93FF93E0910201F09103011C
:100340000995FF91EF91BF91AF919F918F917F910F
:100350006F915F914F913F912F910F900FBE0F9032
:100360001F9018951F920F920FB60F9211242F9382
:100370003F934F935F936F937F938F939F93AF932D
:10038000BF93EF93FF93E0910001F0910101099574
:10039000FF91EF91BF91AF919F918F917F916F915D
:1003A0005F914F913F912F910F900FBE0F901F9033
:1003B0001895789484B5826084BD84B5816084BDCD
:1003C00085B5826085BD85B5816085BD80916E00F3
:1003D000816080936E001092810080918100826024
:1003E0008093810080918100816080938100809161
:1003F00080008160809380008091B1008460809350
:10040000B1008091B00081608093B00080917A004B
:10041000846080937A0080917A00826080937A0071
:1004200080917A00816080937A0080917A00806860
:1004300080937A001092C10061E084E00E94D100B4
:1004400061E085E00E94D10061E086E00E94D10079
:1004500061E087E00E94D10061E088E00E94D10065
:1004600061E089E00E94D10061E08AE00E94D10051
:1004700061E08BE00E94D10060E082E00E94D10048
:1004800062E083E00E94D1008EE091E0909303014E
:100490008093020180916900837F88608093690066
:1004A000E99A8BE790E0909301018093000180919D
:1004B0006900836080936900E89A00E010E0C1E081
:1004C000D0E0809106019091070160E081309105B4
:1004D00029F08230910509F047C061E084E00E9474
:1004E000850060E085E00E94850060E086E00E9473
:1004F000850060E087E00E94850080910401909172
:100500000501069771F48091060190910701029709
:1005100041F4D0930701C0930601D0930501C09325
:100520000401809104019091050160E08130910502
:1005300029F08230910509F068C061E088E00E94EE
:10054000850060E089E00E94850060E08AE00E940A
:10055000850060E08BE00E9485000115110509F41B
:10056000B0CF0E940000ADCF60E08330910521F054
:100570008430910531F461E084E00E94850061E0FF
:10058000B1CF60E08530910521F08630910551F4BE
:1005900061E084E00E94850060E085E00E948500C3
:1005A00061E0A4CF60E08730910521F088309105AB
:1005B00031F461E084E00E94850061E0EECF60E00C
:1005C0008930910521F08A30910571F461E084E071
:1005D0000E94850060E085E00E94850060E086E082
:1005E0000E94850061E086CF0B9709F086CF80914D
:1005F000040190910501D0930701C0930601019673
:10060000909305018093040178CF9C012350310918
:100610002230310530F461E088E00E94850061E01D
:1006200091CF60E08530910521F0069709F095CFD4
:1006300061E088E00E94850060E089E00E9485001A
:1006400061E084CFF894FFCF0D010D01010001009E
:107E0000112484B714BE81FFF0D085E080938100F7
:107E100082E08093C00088E18093C10086E0809377
:107E2000C20080E18093C4008EE0C9D0259A86E02C
:107E300020E33CEF91E0309385002093840096BBD3
:107E4000B09BFECF1D9AA8958150A9F7CC24DD24C4
:107E500088248394B5E0AB2EA1E19A2EF3E0BF2EE7
:107E6000A2D0813461F49FD0082FAFD0023811F036
:107E7000013811F484E001C083E08DD089C08234E0
:107E800011F484E103C0853419F485E0A6D080C0E4
:107E9000853579F488D0E82EFF2485D0082F10E0AE
:107EA000102F00270E291F29000F111F8ED06801E7
:107EB0006FC0863521F484E090D080E0DECF843638
:107EC00009F040C070D06FD0082F6DD080E0C81688
:107ED00080E7D80618F4F601B7BEE895C0E0D1E017
:107EE00062D089930C17E1F7F0E0CF16F0E7DF06D8
:107EF00018F0F601B7BEE89568D007B600FCFDCFD4
:107F0000A601A0E0B1E02C9130E011968C91119780
:107F100090E0982F8827822B932B1296FA010C0160
:107F200087BEE89511244E5F5F4FF1E0A038BF0790
:107F300051F7F601A7BEE89507B600FCFDCF97BE46
:107F4000E89526C08437B1F42ED02DD0F82E2BD052
:107F50003CD0F601EF2C8F010F5F1F4F84911BD097
:107F6000EA94F801C1F70894C11CD11CFA94CF0C13
:107F7000D11C0EC0853739F428D08EE10CD085E9AC
:107F80000AD08FE07ACF813511F488E018D01DD067
:107F900080E101D065CF982F8091C00085FFFCCF94
:107FA0009093C60008958091C00087FFFCCF809118
:107FB000C00084FD01C0A8958091C6000895E0E648
:107FC000F0E098E1908380830895EDDF803219F02E
:107FD00088E0F5DFFFCF84E1DECF1F93182FE3DFCA
:107FE0001150E9F7F2DF1F91089580E0E8DFEE27F6
:047FF000FF270994CA
:027FFE00040479
:00000001FF
